:020000040800F2
:100000004804002049010008CB02000879020008DA
:10001000C9020008BD010008E1030008000000005B
:10002000000000000000000000000000E9020008DD
:10003000BF01000800000000CD02000875030008A1
:100040006301000863010008630100086301000800
:1000500063010008630100086301000863010008F0
:1000600063010008630100086301000863010008E0
:1000700063010008630100086301000863010008D0
:10008000630100086301000863010008000000002C
:1000900000000000000000000000000063010008F4
:1000A00063010008630100086301000863010008A0
:1000B0006301000863010008630100086301000890
:1000C0006301000863010008630100086301000880
:1000D0006301000863010008630100086301000870
:1000E0006301000863010008630100086301000860
:1000F0006301000863010008000000000000000028
:100100000000000000000000630100086301000817
:10011000630100086301000863010008630100082F
:10012000630100086301000863010008630100081F
:1001300063010008DFF80CD000F02EF800480047FB
:100140003D0700084804002006488047064800474D
:10015000FEE7FEE7FEE7FEE7FEE7FEE7FEE7FEE777
:10016000FEE7FEE7790300083501000830B50B46CD
:10017000014600202022012409E021FA02F59D42D7
:1001800005D303FA02F5491B04FA02F52844151EAB
:10019000A2F10102F1DC30BD064C074D06E0E0683B
:1001A00040F0010394E8070098471034AC42F6D3BE
:1001B000FFF7C4FFB0070008D0070008FEE770474C
:1001C00001B503480099416041680029FCD108BD90
:1001D00000000020F0B5CC78002204F00F03E40604
:1001E00001D58C7823430C784FF00F0C14F0FF0FDF
:1001F0004FF0010E1BD005680E880EFA02F426405F
:10020000A64210D196000CFA06F725EA070703FA72
:1002100006F5CE783D43282E02D0482E02D002E0CB
:10022000446100E00461521C082AE5D305600A8895
:10023000FF2A1CD94468002202F108060EFA06F5CE
:100240000E882E40AE420ED196000CFA06F7BC4343
:1002500003FA06F7CE783C43282E00D14561CE78CC
:10026000482E00D10561521C082AE5D34460F0BD38
:100270004161704701617047FEE7000070B50121E0
:10028000082000F025F80D4C43F2F00003262080F2
:10029000A6701025E57021460948FFF79BFF012154
:1002A000102000F015F846F23C002080A670E570A2
:1002B0002146BDE870400348FFF78CBF08000020CE
:1002C000000C014000100140FEE77047704700003D
:1002D000044A0029916901D0014300E08143916102
:1002E0007047000000100240704700000CB500226B
:1002F0001F4800920192016841F4803101604FF47F
:10030000A063016801F4003101910099491C00913A
:10031000019911B900999942F3D10168890324D553
:10032000012101914168416041684160416841603B
:10033000416821F47C114160416841F498114160A9
:10034000016841F08071016001688901FCD5416854
:1003500021F003014160416841F0020141604168C0
:10036000C1F381010229FAD10CBD01920CBD00003C
:100370000010024000F02AB8104810B5016841F0A2
:100380000101016041680E4A1140416001680D4A57
:1003900011400160016821F480210160416821F46D
:1003A000FE0141604FF41F0181600021C162FFF72F
:1003B0009DFF05494FF00060086010BD001002402D
:1003C0000000FFF8FFFFF6FE08ED00E0034841687B
:1003D000002902D04168491E41607047000000209A
:1003E000FEE700000FB4084B10B504A902AA039859
:1003F00000F01CF8044602A9002000F0C1F82046D5
:1004000010BC5DF814FB00008105000802E008C87C
:10041000121F08C1002AFAD170477047002001E07E
:1004200001C1121F002AFBD1704700002DE9FF4FC8
:1004300089B09B460446002506E025280BD05A4685
:100440000B999047641C6D1C20780028F5D10DB0E5
:100450002846BDE8F08F0027B8460122474900E052
:10046000074314F8013F203B02FA03F00842F7D19A
:1004700020782E2819D114F8010F47F004072A28F4
:100480000ED06FF02F022078A0F1300109290CD88E
:1004900008EB880102EB410100EB0108641CF2E764
:1004A0000A98641C50F8048B0A9020780028CED05B
:1004B000642808D0692806D075281ED05A460B99A2
:1004C00090476D1C58E00A994FF00A0901C90A913A
:1004D000002802DA40422D2102E0390504D52B2103
:1004E0008DF82010012103E0F90704D02021F7E75F
:1004F0008A4608AE0DE00021FAE70A994FF00A0992
:1005000001C90A91F7E74946FFF730FE303106F896
:10051000011D0028F7D1ADEB060000F12009780796
:1005200001D44FF00108C84502DDA8EB090000E046
:1005300000208046002706E008A85A46C05D0B99B7
:1005400090476D1C7F1C5745F6DB04E030205A466F
:100550000B9990476D1CB8F10001A8F10108F5DC7A
:1005600005E016F8010B5A460B9990476D1CB9F13E
:100570000001A9F10109F4DC641C65E70928010008
:100580000A68531C0B60107070470121002000F0B6
:100590005BB8000070B51E20FFF712FE184C10214A
:1005A0002046FFF765FE20212046FFF763FE40212D
:1005B0002046FFF75DFE80212046FFF759FE6114BB
:1005C000104C2046FFF754FE4FF480452946204644
:1005D000FFF750FE29462046FFF74AFE282100205B
:1005E00000F032F80C21002000F02EF80621002047
:1005F00000F02AF8BDE870400121002000F024B886
:10060000000C01400010014010B5144630B1012823
:1006100006D0022806D0032811D105E0803104E07D
:10062000C03102E0903100E0D031C9B2002000F0CA
:100630000BF804E0C1B2012000F006F8641C207839
:100640000028F7D110BD00002DE9F04106460C4608
:100650000520FFF7B5FD374D4FF40051284616B180
:10066000FFF708FE01E0FFF703FE334F20064FF0CF
:100670008001384602D5FFF7FDFD01E0FFF7F8FDE8
:1006800060064FF04001384602D5FFF7F3FD01E068
:10069000FFF7EEFDA0064FF02001384602D5FFF728
:1006A000E9FD01E0FFF7E4FDE0064FF010013846F8
:1006B00002D5FFF7DFFD01E0FFF7DAFD4FF48046DA
:1006C00031462846FFF7D6FD31462846FFF7D0FDD4
:1006D00020074FF08001384602D5FFF7CBFD01E03F
:1006E000FFF7C6FD60074FF04001384602D5FFF71F
:1006F000C1FD01E0FFF7BCFDA0074FF02001384627
:1007000002D5FFF7B7FD01E0FFF7B2FDE0074FF0BC
:100710001001384602D0FFF7ADFD01E0FFF7A8FD5C
:1007200031462846FFF7A6FD31462846BDE8F04190
:10073000FFF79EBD00100140000C01401648006804
:100740004FF47A75B0FBF5F0B0F1807F0DD220F058
:100750007F414FF0E020491E4161104AF02182F8AC
:10076000141D0021816107210161FFF787FDFFF75B
:1007700011FF0B4CFFF709FF22680AA1521C0B481E
:100780002260FFF72FFE0021084A0846FFF73CFFD2
:100790002846FFF715FDEDE70C0000200FE000E014
:1007A0000000002025302E336400000030000020BF
:1007B000D007000800000020200000000C04000802
:1007C000F007000820000020280400001C04000896
:1007D00000000000000000000000000000366E0174
:1007E00000000000000000000102030406070809E1
:0400000508000135B9
:00000001FF
