:020000040800F2
:1000000098040020490100085D0C0008590C000804
:100010005B0C0008710A0008A90F0008000000002E
:10002000000000000000000000000000610D00085A
:10003000A70B0008000000005F0C0008010E00087C
:100040006301000863010008630100086301000800
:1000500063010008630100086301000863010008F0
:1000600063010008630100086301000863010008E0
:1000700063010008630100086301000863010008D0
:10008000630100086301000863010008000000002C
:1000900000000000000000000000000063010008F4
:1000A00063010008630100086301000863010008A0
:1000B0006301000863010008630100086301000890
:1000C0006301000863010008630100086301000880
:1000D0006301000863010008630100086301000870
:1000E0006301000863010008630100086301000860
:1000F0006301000863010008000000000000000028
:100100000000000000000000630100086301000817
:10011000630100086301000863010008630100082F
:10012000630100086301000863010008630100081F
:1001300063010008DFF80CD000F07AFB00480047AC
:10014000B118000898040020064880470648004778
:10015000FEE7FEE7FEE7FEE7FEE7FEE7FEE7FEE777
:10016000FEE7FEE7050E000835010008F0B480EA5E
:100170000102D40F4200B2EB410F02D20246084600
:1001800011464A0042D0C30DDDB2C1F3C752AD1AC9
:10019000202D35DAC1F3160141F4000204B15242B8
:1001A000C5F1200602FA06F12A411044B3EBD05FF4
:1001B00023D0C4B1012DA0EBC35009DCF0BC4FF03B
:1001C000004202EAC352DBB200F5000000F075BA4B
:1001D000400000F1807000EBC350A0F1807040EA55
:1001E000D170490009E0490841EAC071A0EBC35051
:1001F00000F50000400800EBC350F0BC00F054BA1A
:100200006142012202EB4101001BF6E7F0BC70479E
:1002100081F00041AAE780F00040A7E730B480EA0F
:10022000010202F0004530F0004221F0004013D0FE
:1002300090B1C30DD40DC2F31601C0F31600E41A39
:1002400041F4000140F400027D34914201D3641C6A
:1002500000E04900002C02DA30BC002070474FF467
:1002600000000023914201D3891A034340084FEA5A
:100270004101F7D151B1914202D14FF0004105E067
:1002800002D24FF0010101E06FF0010103EBC45015
:10029000284430BC00F008BA2DE9FE4F804681EAC0
:1002A0000300C00F0C46009021F0004123F00045F0
:1002B000B8EB0200A94105D24046214690461C46B3
:1002C0000B46024623F00040104347D0270DC7F3EA
:1002D0000A00C3F30A510290401A019040286BDAD9
:1002E000C3F3130040F4801B0098924620B1002312
:1002F000D2EB030A63EB0B0B01985946C0F14002A5
:10030000504600F0B0F906460D4650465946019A4F
:1003100000F0B8F910EB08006141002487EA11529F
:1003200084EAE7731A4340D0009A62B3019A012A23
:100330004FEA075215DC001B61EB02014FF000424F
:1003400002EA0752CDE90042001C41F58011324615
:100350002B4600F0EFF903B0BDE8F08F4046214690
:10036000F9E7001B61EB0201001C41F58013001846
:100370005B412018A2F5001747EB030140EAD57056
:10038000B6196D4111E06D084FEA360645EAC075B1
:100390004FEA0752001B61EB0201001C41F580117E
:1003A00049084FEA30000019514132462B4603B04C
:1003B000BDE8F04F00F0AFB90098012240000023E3
:1003C000D0EB020263EBE073009821464FEAE07441
:1003D000B8EB000061EB0401E9E783F000435BE761
:1003E00081F0004158E72DE9FE4F81EA030404F053
:1003F000004421F0004100944FF0000B23F0004333
:1004000050EA01045ED052EA03045BD0C3F30A54FD
:10041000C1F30A552C44A4F2F3340194A0FB025416
:10042000C1F3130141F48011C3F3130343F48013A8
:1004300001FB024400FB034E840A970A44EA8154FC
:1004400047EA8357A4FB076802958D0A05FB0785D9
:100450004FEA932C04FB0C542705029D4FEA0658E3
:1004600047EA1637B5EB08056EEB070C870E920EC0
:1004700047EA811742EA8312A7FB0201B6EB0B01A0
:1004800064EB00042B0D43EA0C335E1844EB1C5064
:10049000DA465146E7FB0201C5F313044FEA0B337A
:1004A00043EA14534FEA0432019C43EA0603A4F1E1
:1004B0000C040294009CCDE900B400F03BF903B0B9
:1004C000BDE8F08F00200146F9E72DE9F04D81EA03
:1004D000030404F0004B21F0004514464FF0000ADD
:1004E00023F0004150EA050220D054EA01021DD059
:1004F000C5F30A570246C5F31303C1F31300C1F352
:100500000A5640F4801543F48013A7EB0608101B2D
:10051000D64608F2FD3873EB050002D308F1010856
:1005200001E092185B41B8F1000F03DA00200146A8
:10053000BDE8F08D00204FF48011064684460EE0A1
:10054000171B73EB050705D3121B63EB050306436B
:100550004CEA010C49084FEA300092185B4150EA1E
:100560000107EDD152EA030012D082EA040083EAC7
:100570000501084305D0101BAB4106D20122002320
:1005800006E000224FF0004302E06FF0010253103A
:100590001AEB06004CEB085110EB0A0041EB0B0183
:1005A000BDE8F04D00F0B7B896230022114600F0E8
:1005B00084B800F0004230F000400AD0C10D01F5CF
:1005C0006071C0F3160042EA0151C20840071143AE
:1005D000704700200146704730B50B4601460020A9
:1005E0002022012409E021FA02F59D4205D303FAF5
:1005F00002F5491B04FA02F52844151EA2F1010276
:10060000F1DC30BD2DE9F05F0546002092469B46A7
:1006100088460646814640241BE028464146474618
:10062000224600F017F953465A46C01A914110D39A
:1006300011461846224600F016F82D1A67EB0108FD
:100640004F4622460120002100F00DF817EB00096B
:100650004E41201EA4F10104DFDC484631462A4603
:100660004346BDE8F09F202A04DB203A00FA02F15D
:10067000002070479140C2F1200320FA03F3194390
:1006800090407047202A06DBCB17203A41FA02F04F
:1006900043EAE07306E041FA02F3D040C2F12002DF
:1006A00091400843194670470029A8BF7047401C75
:1006B000490008BF20F00100704710B4B0FA80FC78
:1006C00000FA0CF050EA010404BF10BC704749B1B5
:1006D000CCF1200421FA04F411FA0CF118BF012125
:1006E00021430843A3EB0C01CB1D4FEA00614FEA05
:1006F000102042BF002010BC704700EBC3501044D4
:100700000029A4BF10BC7047401C490008BF20F05E
:10071000010010BC704710B5141E73F1000408DA14
:10072000401C41F1000192185B411A4301D120F0B5
:10073000010010BD2DE9F04D92469B4611B1B1FA72
:1007400081F202E0B0FA80F220329046FFF78BFF90
:1007500004460F4640EA0A0041EA0B0153465A4656
:10076000084313D0114653EA010019D0C8F14002E2
:10077000504600F06FF805460E4650465946424630
:10078000FFF771FF084305D0012004E020463946F9
:10079000BDE8F08D0020054346EAE0762C43374360
:1007A0000A986305E40AA0EB08000022FD0A44EA67
:1007B00047540A3002D500200146E9E70105101927
:1007C0006941DDE9084500196941BDE8F04DA2E73E
:1007D000C1F30A52C1F3130140F2FF3341F4801117
:1007E0009A4202DA00200146704740F233439A42AF
:1007F000A2F2334202DC524200F02CB8FFF733BFC2
:1008000030B5041E71F1000404DB4FF00044404297
:1008100064EB0101141E73F1000405DB1C464FF06C
:100820000043524263EB0403994208BF904230BD3B
:10083000064C074D06E0E06840F0010394E807002D
:1008400098471034AC42F6D3FFF778FCA0190008A3
:10085000C0190008202A04DB203A21FA02F0002106
:10086000704721FA02F3D040C2F1200291400843C0
:10087000194670470029816802D041F0010101E06A
:1008800021F001018160704770B5294E304600F0BB
:10089000FBF829492748002401C12848012531C116
:1008A000280241F81049C1E905408000C8612020B4
:1008B00008620002C1E909041F49304600F056F9F8
:1008C0000121304600F0D5F81B484FF46021143860
:1008D000046005714571C0E90214164C05740146A7
:1008E0004C3C204600F052F805230122042120460A
:1008F00000F070F80121204600F022F80121204686
:10090000FFF7B8FF204600F09FF8204600F037F8C8
:100910000028FAD1204600F0A6F8204600F028F87A
:100920000028FAD12046BDE87040012100F091B8BE
:10093000080002404C2401404C0000200000002030
:100940000029816802D041F4807101E021F48071B6
:100950008160704708B51020ADF8000000208DF8C8
:1009600003006946014800F029F908BD000801406C
:10097000014600208968490700D5012070470146DB
:1009800000208968090700D50120704710B542682A
:100990000E4B0C791A400B6842EA04221343436061
:1009A00082680B4B1A40D1E9024323434C7942EA57
:1009B000440213438360C26A097C22F47002491E18
:1009C000C9B242EA0151C16210BD0000FFFEF0FF52
:1009D000FDF7F1FF70B5072609290AD9C568A1F10D
:1009E0000A0404EB4404A640B543A3401D43C5607C
:1009F00007E0056901EB4104A640B543A3401D4350
:100A000005611F23072A09D2446B521E02EB8202A2
:100A100093409C4391400C43446370BD0D2A09D21E
:100A2000046BD21F02EB820293409C4391400C4323
:100A3000046370BDC46A0D3A02EB820293409C438A
:100A400091400C43C46270BD816841F0080181602F
:100A500070470029816802D041F4A00101E021F42F
:100A6000A00181607047816841F004018160704796
:100A7000FEE70029016802D041F0010102E04FF6D3
:100A8000FE7211400160704701684FF6FE7211401E
:100A900001600021016041608160C1603149314ADB
:100AA0000839904203D1486840F00F0006E02D4A13
:100AB0001432904204D1486840F0F000486070471A
:100AC000284A2832904203D1486840F47060F5E724
:100AD000244A3C32904203D1486840F47040EDE72C
:100AE000204A5032904203D1486840F47020E5E734
:100AF0001C4A6432904203D1486840F47000DDE73C
:100B0000184A7832904203D1486840F07060D5E7C7
:100B1000154A111F904203D1086840F00F0006E00B
:100B2000114A1432904204D1086840F0F000086085
:100B300070470D4A2832904203D1086840F4706033
:100B4000F5E7094A3C32904203D1086840F470400E
:100B5000EDE7054A50329042EAD1086840F470202F
:100B6000E5E70000080002400804024030B50268D2
:100B700047F6F0739A430C6A8B682343D1E9044526
:100B80002C4323438C692343CC6923434C6A23437E
:100B90008C6A234313430360CA6842600A68826018
:100BA0004968C16030BD704701B503480099416094
:100BB00041680029FCD108BD00000020F0B5CC78C8
:100BC000002204F00F03E40601D58C7823430C784F
:100BD0004FF00F0C14F0FF0F4FF0010E1BD0056803
:100BE0000E880EFA02F42640A64210D196000CFAA6
:100BF00006F725EA070703FA06F5CE783D43282EC7
:100C000002D0482E02D002E0446100E00461521C90
:100C1000082AE5D305600A88FF2A1CD94468002207
:100C200002F108060EFA06F50E882E40AE420ED1ED
:100C300096000CFA06F7BC4303FA06F7CE783C435D
:100C4000282E00D14561CE78482E00D10561521C76
:100C5000082AE5D34460F0BDFEE7FEE77047704721
:100C6000034A516821F4404101435160704700003C
:100C700000100240044A0029516901D0014300E0FC
:100C8000814351617047000000100240044A00296E
:100C9000916901D0014300E08143916170470000F8
:100CA0000010024010B50020FFF7DAFF01210846CE
:100CB000FFF7E0FFBDE8104001214FF40170FFF79E
:100CC000E5BF000030B5224A5168224B11F00C01FB
:100CD00003D0042901D0082901D0036015E0516830
:100CE000546801F470114FF0020514F4803F05EBD5
:100CF000914107D0D46A04F00F04641CB3FBF4F3F1
:100D00004B43EAE7144B5943016051680F2303EA50
:100D10001111124B5C5C0168E14041605468072589
:100D200005EA14241C5D21FA04F48460546805EA81
:100D3000D4241B5DD940C1605268032303EA923278
:100D4000064B1B1F9A5CB1FBF2F1016130BD000044
:100D50000010024000127A0000093D00140000203B
:100D6000704710B5044600F01BF94021204600F002
:100D7000B9F80028F9D010BD0CB500221F48009228
:100D80000192016841F4803101604FF4A063016871
:100D900001F4003101910099491C0091019911B9A8
:100DA00000999942F3D10168890324D50121019169
:100DB000416841604168416041684160416821F497
:100DC0007C114160416841F498114160016841F033
:100DD0008071016001688901FCD5416821F003013F
:100DE0004160416841F0020141604168C1F3810105
:100DF0000229FAD10CBD01920CBD00000010024086
:100E000000F02AB8104810B5016841F001010160F6
:100E100041680E4A1140416001680D4A114001606D
:100E2000016821F480210160416821F4FE014160E4
:100E30004FF41F0181600021C162FFF79DFF05494A
:100E40004FF00060086010BD001002400000FFF885
:100E5000FFFFF6FE08ED00E003484168002902D0DC
:100E60004168491E416070470000002000298189C7
:100E700002D041F4005101E021F40051818170471A
:100E800010B501210420FFF701FF12481821C1709D
:100E9000890101800321817001460F48FFF78EFE12
:100EA00001218803FFF7F2FE0C484FF496310C4CF9
:100EB000016000218180C180018181810C214181FB
:100EC0000146204600F016F82046BDE810400121FA
:100ED000FFF7CCBF08000020000801407800002088
:100EE000003801400246002012880A4200D001204A
:100EF0007047000030B50446008A85B00D464CF6B8
:100F0000FF710840E98801432182A0894EF6F31160
:100F10000840A9882A8911436A8902431143A181A3
:100F2000A08A4FF6FF410840A9890143A182684683
:100F3000FFF7C8FE1948844201D1039800E00298E7
:100F4000A189090400EBC00101EB0010296801D55B
:100F5000490000E08900B0FBF1F06422B0FBF2F13F
:100F600009010B096FF018056B4300EB8300A3899F
:100F70001D044FF0320306D503EBC000B0FBF2F0C6
:100F800000F0070005E003EB0010B0FBF2F000F00A
:100F90000F000843208105B030BD0000003801403B
:100FA000C1F3080181807047FEE700000FB4084BD1
:100FB00010B504A902AA039800F0DEF8044602A9BD
:100FC000002000F070FC204610BC5DF814FB00000F
:100FD000A718000802E008C8121F08C1002AFAD1A9
:100FE00070477047002001E001C1121F002AFBD1A9
:100FF000704700002DE9FF5F82B00021DDE9043079
:10100000020DDDF840B0034318D044F61050A2F2B0
:10101000FF3242431514119801281FD0A5EB0B0095
:10102000401C5FEA000A4FF000064E4FDFF838918F
:10103000B046504615D5CAF1000413E011980124BA
:101040004AA3012801D16FEA0B010298119AC0E965
:101050000031C0E9024206B0BDE8F09FCBF10000CC
:10106000DFE704460021404A491842EB0450CDE92D
:10107000001012E0E00707D032463B4640464946A2
:10108000FFF7B1F98046894632463B46104619467D
:10109000FFF7A9F906460F466410002CEAD1DDE9F6
:1010A0000401DDE90023BAF1000F06DAFFF79BF92E
:1010B00042464B46FFF797F905E0FFF706FA42462E
:1010C0004B46FFF702FA04460E460022284BFFF774
:1010D00097FB03D84FF0FF30014607E00022254B75
:1010E00020463146FFF7D8F8FFF772FB102409E0DD
:1010F000002C0ADB0A220023FFF784FA039B30321C
:101100001A55641E50EA0102F2D1641C039AC4F11C
:1011100011031444119A012A03D0012208430DD16E
:101120000AE0084304D000204FF0110B119072E741
:10113000A3EB0B056D1E0DE05B4504DD4FF00002D7
:1011400005F1010504E003DA4FF00002A5F1010505
:10115000002AECD002981199C0E90231C0E900459B
:1011600079E70000000014400000F03F300000006C
:101170000000F0430000E03F2DE9FF4F95B09B4693
:101180008946064600250FE2252877D10024274608
:10119000F84A0121059400E0044316F8013F203B82
:1011A00001FA03F01042F7D130782A2811D06FF0FD
:1011B0002F033078A0F13002092A16D8059A44F09E
:1011C000020402EB820203EB42021044761C0590FB
:1011D000EFE759F8042B0592002A03DA504244F451
:1011E0000054059044F00204761C30782E2816D165
:1011F00016F8010F44F004042A280DD06FF02F02D6
:101200003078A0F13003092B09D807EB870302EBF4
:101210004303C718761CF3E759F8047B761C307833
:101220006C280FD006DC4C2817D068280DD06A280F
:1012300014D104E0742810D07A280FD10DE044F4C2
:1012400000140AE044F4801401E044F4401472787D
:10125000824202D104F58014761C761C3078662810
:101260000BD013DC582877D009DC002875D045282E
:10127000F6D04628F4D047281AD19DE118E063281B
:1012800035D0642879D0652812D195E1702873D0C3
:1012900008DC6728F1D069286FD06E280DD06F2840
:1012A00006D1B5E073282CD0752875D0782874D075
:1012B0005A46179990476D1C75E1C4F302500228F5
:1012C00009D003280DD0D9F8001004280DD00D60E6
:1012D00009F1040967E1D9F80010EA17C1E90052E1
:1012E000F6E7D9F800100D80F2E70D70F0E719F875
:1012F000041B8DF8001000208DF80100EA46012043
:1013000003E059F804AB4FF0FF3061074FF00001E4
:1013100002D40DE008F101018846B9420FDA804598
:10132000F8DB1AF808100029F4D108E008F10101EF
:1013300088468142FADB1AF808100029F6D1059890
:101340005B46A0EB080721463846179A00F094FA4E
:10135000284400EB080507E04DE029E10DE01AF80C
:10136000010B5A4617999047B8F10108F7D25B462E
:1013700021463846179A13E142E00A220092C4F34C
:1013800002524FF0000A022A08D059F804CB032A6F
:101390004FEAEC710AD00DE029E02AE009F10701DB
:1013A00021F00702F2E802C1914609E00FFA8CFC35
:1013B0004FEAEC71042A03D14FFA8CFC4FEAEC712E
:1013C000002907DA0A460021DCF1000C61EB02017A
:1013D0002D2202E0220504D52B228DF804200122C3
:1013E00003E0E20701D02022F7E7904659E00A2106
:1013F00002E010220DE010214FF0000A00910BE0F6
:1014000010224FF0000A44F004040827009203E081
:1014100008224FF0000A0092C4F30252022A05D0BB
:1014200059F804CB0021032A08D009E009F107018B
:1014300021F00702F2E802C1914605E01FFA8CFC98
:10144000042A01D10CF0FF0C4FF00008220728D528
:10145000702806D0009B83F0100353EA0A0305D0DE
:101460000EE040228DF80420012208E05CEA01022F
:1014700006D030228DF804208DF805000222904617
:10148000009B83F0080353EA0A030AD15CEA0102D5
:1014900001D1620705D530228DF804204FF00108F4
:1014A0007F1E582804D034A003900EA802900DE0AF
:1014B00036A0F9E753466046009AFFF7A3F8844642
:1014C0000398825C0298401E029002705CEA010060
:1014D000F0D1029806A9081A00F1200A600702D587
:1014E00024F4803400E00127574502DDA7EB0A0011
:1014F00000E0002000EB0A01009005984144401AEA
:101500000590E00306D45B462146179A059800F043
:10151000B3F90544002706E001A85A46C05D1799B3
:1015200090476D1C7F1C4745F6DBE0030CD55B46FE
:101530002146179A059800F09FF9054404E03020F1
:101540005A46179990476D1C0099481E0090002933
:10155000F5DC08E0029802995A460078491C02918D
:10156000179990476D1CBAF10001AAF1010AF1DC4C
:1015700065E1000009280100303132333435363757
:1015800038396162636465660000000030313233CF
:10159000343536373839414243444546000000006F
:1015A00000F058F90544761C307800287FF4ECAD43
:1015B00019B02846BDE8F08F620700D4062709F16C
:1015C000070222F0070CFCE80223E14603F0004882
:1015D0005FEA080C02D00FF2702C0DE05FEA045CA9
:1015E00002D50FF2682C07E05FEAC47C02D00FF24C
:1015F000602C01E0AFF2700C4FF0FF3823F0004395
:10160000CDF850C065280CD006DC452809D0462806
:101610001DD047283DD13DE0662818D067287ED1EF
:1016200038E00021112F01DB112000E0781CCDE90A
:10163000000106A90EA8FFF7DDFCDDE90F010E9AF7
:1016400003910021009207F1010A04914DE04FF04F
:1016500000400097CDE9011006A90EA8FFF7CAFCCB
:10166000DDE90F0203920E9B11990022DDF80CA018
:101670000093049211B9791C00EB010AB7EB0A0040
:1016800004D4C0F1FF3007F1010A0490AAEB07006F
:10169000019044E0012F00DA01270021112F01DD24
:1016A000112000E03846CDE9000106A90EA8FFF799
:1016B000A1FCDDE90F010E9A039100210491009233
:1016C000BA4621070CD40399514500DA8A46BAF18B
:1016D000010F05DD009AAAF10101515C302908D003
:1016E000B84202DA10F1040F06DA0121CDE9011047
:1016F00015E0AAF10101E9E7002805DC049901449D
:101700000491AAEB000102E0411C514500DD8A462C
:101710000499401A401C01904FF0004002902007AD
:1017200004D40198504501DBCDF8048000208DF8E9
:101730004F0002980DF14F07B0F1004F25D02B203C
:101740000E9002984FF0020800280CDA40420290F6
:101750002D200E9007E00A210298FEF73DFF303160
:10176000029007F8011DB8F10001A8F10108F2DCB0
:1017700002980028EFD1791E0E980870307800F09A
:10178000200040F0450007F8020D12A8C01B00F130
:1017900007081498007800B1012000EB0A010198B5
:1017A00001EBE07105984144401A401E0590E003AA
:1017B00006D45B462146179A059800F05DF805446B
:1017C0001498007818B15A46179990476D1CE00399
:1017D00024D55B462146179A059800F04DF805443C
:1017E0001CE00498002807DBDDE90301884203DDE3
:1017F0000098405C179901E0179930205A469047AD
:10180000049805F10105401C04900198401E0190C8
:1018100004D12E205A46179990476D1CBAF1000149
:10182000AAF1010ADDDC05E017F8010B5A46179909
:1018300090476D1CB8F10001A8F10108F4DC5B468B
:101840002146179A0598ABE62D0000002B000000FA
:10185000200000002DE9F041044600251E461746F1
:10186000880404D405E039462020B0476D1C641E6E
:10187000F9D52846BDE8F0812DE9F0410446002560
:101880001E469046C80301D5302700E02027880473
:1018900004D505E041463846B0476D1C641EF9D5B5
:1018A0002846BDE8F0810A68531C0B601070704731
:1018B0000A25FFF7F7F930484FF47A7700240068DB
:1018C000B0FBF7F0B0F1807F0CD220F07F414FF0F9
:1018D000E020491E4161294AF02182F8141D8461EB
:1018E00007210161FFF736F8FEF7CEFFFFF7C8FAD0
:1018F000DFF88CA0A14656460124CAF80C900CE0F3
:10190000B7FBF5F0FFF750F93088FEF74DFEF168B0
:10191000FEF72CFC641CE4B2F060AC42F0D928461F
:10192000FEF742FE0146F068FEF778FCF060FEF735
:1019300040FE0022134BFEF756FD0022124BFEF72D
:10194000C4FD0022114BFEF748FD02460B4610A1D4
:101950001148FFF72BFB104EDFF840800024404673
:10196000315DFFF7FEF9641CE4B2072CF7D3642065
:10197000FFF71AF9BFE70000240000200FE000E0A5
:1019800000000020003071400098A94000205C4019
:101990006125302E326600008800002000380140AA
:1019A000C01900080000002038000000D40F000813
:1019B000F81900083800002060040000E40F000857
:1019C0000000000000000000000000000000000017
:1019D00002040608000000000102030401020304DF
:1019E0000607080900366E01000000000000000034
:0819F0000102030406070809C7
:0400000508000135B9
:00000001FF
